{"abi":[{"type":"constructor","inputs":[{"name":"_merchant","type":"address","internalType":"address"},{"name":"_user","type":"address","internalType":"address"},{"name":"_amount","type":"uint256","internalType":"uint256"},{"name":"_adjudicator1","type":"address","internalType":"address"},{"name":"_adjudicator2","type":"address","internalType":"address"},{"name":"_adjudicator3","type":"address","internalType":"address"},{"name":"_adjudicator4","type":"address","internalType":"address"},{"name":"_adjudicator5","type":"address","internalType":"address"},{"name":"_on_ramp","type":"bool","internalType":"bool"},{"name":"_token","type":"address","internalType":"address"},{"name":"_timelock","type":"uint256","internalType":"uint256"},{"name":"_governance","type":"address","internalType":"address"}],"stateMutability":"nonpayable"},{"type":"function","name":"adjudicator1","inputs":[],"outputs":[{"name":"","type":"address","internalType":"address"}],"stateMutability":"view"},{"type":"function","name":"adjudicator2","inputs":[],"outputs":[{"name":"","type":"address","internalType":"address"}],"stateMutability":"view"},{"type":"function","name":"adjudicator3","inputs":[],"outputs":[{"name":"","type":"address","internalType":"address"}],"stateMutability":"view"},{"type":"function","name":"adjudicator4","inputs":[],"outputs":[{"name":"","type":"address","internalType":"address"}],"stateMutability":"view"},{"type":"function","name":"adjudicator5","inputs":[],"outputs":[{"name":"","type":"address","internalType":"address"}],"stateMutability":"view"},{"type":"function","name":"amount","inputs":[],"outputs":[{"name":"","type":"uint256","internalType":"uint256"}],"stateMutability":"view"},{"type":"function","name":"check_user_has_settled","inputs":[{"name":"user","type":"address","internalType":"address"},{"name":"merchant","type":"address","internalType":"address"}],"outputs":[{"name":"","type":"address","internalType":"address"}],"stateMutability":"view"},{"type":"function","name":"dispute","inputs":[],"outputs":[],"stateMutability":"nonpayable"},{"type":"function","name":"governance","inputs":[],"outputs":[{"name":"","type":"address","internalType":"contract IGovernanceDispute"}],"stateMutability":"view"},{"type":"function","name":"merchant","inputs":[],"outputs":[{"name":"","type":"address","internalType":"address"}],"stateMutability":"view"},{"type":"function","name":"on_ramp","inputs":[],"outputs":[{"name":"","type":"bool","internalType":"bool"}],"stateMutability":"view"},{"type":"function","name":"rollback_prestate","inputs":[],"outputs":[],"stateMutability":"nonpayable"},{"type":"function","name":"router","inputs":[],"outputs":[{"name":"","type":"address","internalType":"contract IRouter"}],"stateMutability":"view"},{"type":"function","name":"settle","inputs":[],"outputs":[],"stateMutability":"nonpayable"},{"type":"function","name":"timelock","inputs":[],"outputs":[{"name":"","type":"uint256","internalType":"uint256"}],"stateMutability":"view"},{"type":"function","name":"token","inputs":[],"outputs":[{"name":"","type":"address","internalType":"contract IERC20"}],"stateMutability":"view"},{"type":"function","name":"unlock_funds","inputs":[],"outputs":[],"stateMutability":"nonpayable"},{"type":"function","name":"user","inputs":[],"outputs":[{"name":"","type":"address","internalType":"address"}],"stateMutability":"view"},{"type":"event","name":"DisputeMade","inputs":[{"name":"escrow","type":"address","indexed":true,"internalType":"address"},{"name":"merchant","type":"address","indexed":true,"internalType":"address"},{"name":"user","type":"address","indexed":true,"internalType":"address"}],"anonymous":false},{"type":"event","name":"FundsUnlocked","inputs":[{"name":"reciever","type":"address","indexed":true,"internalType":"address"},{"name":"amount","type":"uint256","indexed":false,"internalType":"uint256"}],"anonymous":false},{"type":"event","name":"RollBackState","inputs":[{"name":"reciever","type":"address","indexed":true,"internalType":"address"},{"name":"amount","type":"uint256","indexed":false,"internalType":"uint256"}],"anonymous":false},{"type":"event","name":"Settled","inputs":[{"name":"merchant","type":"address","indexed":true,"internalType":"address"},{"name":"user","type":"address","indexed":true,"internalType":"address"},{"name":"on_ramp","type":"bool","indexed":false,"internalType":"bool"}],"anonymous":false}],"bytecode":{"object":"0x6101c06040523480156200001257600080fd5b506040516200196b3803806200196b8339810160408190526200003591620000d4565b6001600160a01b0398891660805296881660a05294871660c05292861660e052908516610100529684166101205294831661014052610160939093529315156101a052600080549382166001600160a01b03199485161790556001805484163317905561018091909152600280549390911692909116919091179055620001bd565b80516001600160a01b0381168114620000cf57600080fd5b919050565b6000806000806000806000806000806000806101808d8f031215620000f857600080fd5b620001038d620000b7565b9b506200011360208e01620000b7565b9a5060408d015199506200012a60608e01620000b7565b98506200013a60808e01620000b7565b97506200014a60a08e01620000b7565b96506200015a60c08e01620000b7565b95506200016a60e08e01620000b7565b94506101008d015180151581146200018157600080fd5b9350620001926101208e01620000b7565b92506101408d01519150620001ab6101608e01620000b7565b90509295989b509295989b509295989b565b60805160a05160c05160e05161010051610120516101405161016051610180516101a0516115e262000389600039600081816101f6015281816103940152818161089c015281816108da0152818161098701528181610ff001526112bd0152600081816102f20152818161034d0152818161094901528181610f82015261127f015260008181610267015281816104ee0152818161059d01528181610727015281816107d601528181610ba201528181610c6401528181610e8f01528181610f510152818161105a0152818161111c0152818161118c015261124e01526000818161012a015281816105fa01528181610683015281816106f9015281816107a70152818161082701528181610b7a01528181610c1901528181610ca601528181610de00152818161116401528181611203015281816113870152611411015260008181610240015281816103c601528181610446015281816104c00152818161056e01528181610851015281816109b901528181610af301528181610e6701528181610f0601528181611032015281816110d1015281816112f0015261143b015260006101a8015260006102a4015260006101cf0152600061016e015260006102cb01526115e26000f3fe608060405234801561001057600080fd5b50600436106101165760003560e01c8063aa8c217c116100a2578063d33219b411610071578063d33219b4146102ed578063e7b96c3514610314578063f240f7c31461031c578063f887ea4014610324578063fc0c546a1461033757600080fd5b8063aa8c217c14610262578063b619d95714610297578063c43151da1461029f578063ce4d3c28146102c657600080fd5b8063672d619a116100e9578063672d619a146101a3578063782ddae6146101ca578063821f1e8f146101f15780639d9a38f714610228578063a5ff76511461023b57600080fd5b806311da60b41461011b5780634f8632ba14610125578063559c17e9146101695780635aa6e67514610190575b600080fd5b61012361034a565b005b61014c7f000000000000000000000000000000000000000000000000000000000000000081565b6040516001600160a01b0390911681526020015b60405180910390f35b61014c7f000000000000000000000000000000000000000000000000000000000000000081565b60025461014c906001600160a01b031681565b61014c7f000000000000000000000000000000000000000000000000000000000000000081565b61014c7f000000000000000000000000000000000000000000000000000000000000000081565b6102187f000000000000000000000000000000000000000000000000000000000000000081565b6040519015158152602001610160565b61014c610236366004611523565b6108d6565b61014c7f000000000000000000000000000000000000000000000000000000000000000081565b6102897f000000000000000000000000000000000000000000000000000000000000000081565b604051908152602001610160565b610123610946565b61014c7f000000000000000000000000000000000000000000000000000000000000000081565b61014c7f000000000000000000000000000000000000000000000000000000000000000081565b6102897f000000000000000000000000000000000000000000000000000000000000000081565b610123610f7f565b61012361127c565b60015461014c906001600160a01b031681565b60005461014c906001600160a01b031681565b427f0000000000000000000000000000000000000000000000000000000000000000116103925760405162461bcd60e51b815260040161038990611556565b60405180910390fd5b7f000000000000000000000000000000000000000000000000000000000000000015156001036105f0576001600160a01b037f000000000000000000000000000000000000000000000000000000000000000081166000818152600360205260409020549091160361043b5760405162461bcd60e51b8152602060048201526012602482015271536574746c656d656e74206973206d61646560701b6044820152606401610389565b336001600160a01b037f000000000000000000000000000000000000000000000000000000000000000016146104a65760405162461bcd60e51b815260206004820152601060248201526f139bdd081d1a19481b595c98da185b9d60821b6044820152606401610389565b6000546040516323b872dd60e01b81526001600160a01b037f0000000000000000000000000000000000000000000000000000000000000000811660048301523060248301527f00000000000000000000000000000000000000000000000000000000000000006044830152909116906323b872dd906064016020604051808303816000875af115801561053e573d6000803e3d6000fd5b505050506040513d601f19601f820116820180604052508101906105629190611583565b506040805180820182527f00000000000000000000000000000000000000000000000000000000000000006001600160a01b039081168083527f00000000000000000000000000000000000000000000000000000000000000006020808501918252600092835260039052939020915182546001600160a01b03191691161781559051600190910155610825565b6001600160a01b037f000000000000000000000000000000000000000000000000000000000000000081166000818152600360205260409020549091160361066f5760405162461bcd60e51b8152602060048201526012602482015271536574746c656d656e74206973206d61646560701b6044820152606401610389565b6106783361149b565b336001600160a01b037f000000000000000000000000000000000000000000000000000000000000000016146106df5760405162461bcd60e51b815260206004820152600c60248201526b2737ba103a3432903ab9b2b960a11b6044820152606401610389565b6000546040516323b872dd60e01b81526001600160a01b037f0000000000000000000000000000000000000000000000000000000000000000811660048301523060248301527f00000000000000000000000000000000000000000000000000000000000000006044830152909116906323b872dd906064016020604051808303816000875af1158015610777573d6000803e3d6000fd5b505050506040513d601f19601f8201168201806040525081019061079b9190611583565b506040805180820182527f00000000000000000000000000000000000000000000000000000000000000006001600160a01b039081168083527f00000000000000000000000000000000000000000000000000000000000000006020808501918252600092835260039052939020915182546001600160a01b031916911617815590516001909101555b7f00000000000000000000000000000000000000000000000000000000000000006001600160a01b03167f00000000000000000000000000000000000000000000000000000000000000006001600160a01b03167f0aad25fe9eccd23f931301ccbd59b5928e1b9f895ae975c675799a8cf0709f637f00000000000000000000000000000000000000000000000000000000000000006040516108cc911515815260200190565b60405180910390a3565b60007f0000000000000000000000000000000000000000000000000000000000000000151560010361092357506001600160a01b0380821660009081526003602052604090205416610940565b506001600160a01b03808316600090815260036020526040902054165b92915050565b427f0000000000000000000000000000000000000000000000000000000000000000116109855760405162461bcd60e51b815260040161038990611556565b7f00000000000000000000000000000000000000000000000000000000000000001515600103610c9c576001600160a01b037f0000000000000000000000000000000000000000000000000000000000000000811660008181526003602052604090205490911614610a395760405162461bcd60e51b815260206004820152601c60248201527f5468657265206973206e6f207472616e73616374696f6e206d616465000000006044820152606401610389565b60015460405163aca2023b60e01b81523060048201526001600160a01b039091169063aca2023b90602401602060405180830381865afa158015610a81573d6000803e3d6000fd5b505050506040513d601f19601f82011682018060405250810190610aa59190611583565b15610ae85760405162461bcd60e51b81526020600482015260136024820152725472616e73616374696f6e20697320646f6e6560681b6044820152606401610389565b336001600160a01b037f00000000000000000000000000000000000000000000000000000000000000001614610b605760405162461bcd60e51b815260206004820152601a60248201527f43616c6c6572206973206e6f7420746865206d65726368616e740000000000006044820152606401610389565b60005460405163a9059cbb60e01b81526001600160a01b037f0000000000000000000000000000000000000000000000000000000000000000811660048301527f000000000000000000000000000000000000000000000000000000000000000060248301529091169063a9059cbb906044016020604051808303816000875af1158015610bf2573d6000803e3d6000fd5b505050506040513d601f19601f82011682018060405250810190610c169190611583565b507f00000000000000000000000000000000000000000000000000000000000000006001600160a01b03167f7e187bf56d23cc278139f36660c1b9c56739b0518009319e389d2c33f7acc7d37f0000000000000000000000000000000000000000000000000000000000000000604051610c9291815260200190565b60405180910390a2565b6001600160a01b037f0000000000000000000000000000000000000000000000000000000000000000811660008181526003602052604090205490911614610d265760405162461bcd60e51b815260206004820152601c60248201527f5468657265206973206e6f207472616e73616374696f6e206d616465000000006044820152606401610389565b60015460405163aca2023b60e01b81523060048201526001600160a01b039091169063aca2023b90602401602060405180830381865afa158015610d6e573d6000803e3d6000fd5b505050506040513d601f19601f82011682018060405250810190610d929190611583565b15610dd55760405162461bcd60e51b81526020600482015260136024820152725472616e73616374696f6e20697320646f6e6560681b6044820152606401610389565b336001600160a01b037f00000000000000000000000000000000000000000000000000000000000000001614610e4d5760405162461bcd60e51b815260206004820152601a60248201527f43616c6c6572206973206e6f7420746865206d65726368616e740000000000006044820152606401610389565b60005460405163a9059cbb60e01b81526001600160a01b037f0000000000000000000000000000000000000000000000000000000000000000811660048301527f000000000000000000000000000000000000000000000000000000000000000060248301529091169063a9059cbb906044016020604051808303816000875af1158015610edf573d6000803e3d6000fd5b505050506040513d601f19601f82011682018060405250810190610f039190611583565b507f00000000000000000000000000000000000000000000000000000000000000006001600160a01b03167f7e187bf56d23cc278139f36660c1b9c56739b0518009319e389d2c33f7acc7d37f0000000000000000000000000000000000000000000000000000000000000000604051610c9291815260200190565b427f000000000000000000000000000000000000000000000000000000000000000010610fee5760405162461bcd60e51b815260206004820152601760248201527f54696d656c6f636b20686173206e6f742066696e6973680000000000000000006044820152606401610389565b7f0000000000000000000000000000000000000000000000000000000000000000151560010361114a5760005460405163a9059cbb60e01b81526001600160a01b037f0000000000000000000000000000000000000000000000000000000000000000811660048301527f000000000000000000000000000000000000000000000000000000000000000060248301529091169063a9059cbb906044016020604051808303816000875af11580156110aa573d6000803e3d6000fd5b505050506040513d601f19601f820116820180604052508101906110ce9190611583565b507f00000000000000000000000000000000000000000000000000000000000000006001600160a01b03167fb0dab850a55dfcf0a4e5f07265e415d145876d9c401230dfc6eed20e9af87f0d7f0000000000000000000000000000000000000000000000000000000000000000604051610c9291815260200190565b60005460405163a9059cbb60e01b81526001600160a01b037f0000000000000000000000000000000000000000000000000000000000000000811660048301527f000000000000000000000000000000000000000000000000000000000000000060248301529091169063a9059cbb906044016020604051808303816000875af11580156111dc573d6000803e3d6000fd5b505050506040513d601f19601f820116820180604052508101906112009190611583565b507f00000000000000000000000000000000000000000000000000000000000000006001600160a01b03167fb0dab850a55dfcf0a4e5f07265e415d145876d9c401230dfc6eed20e9af87f0d7f0000000000000000000000000000000000000000000000000000000000000000604051610c9291815260200190565b427f0000000000000000000000000000000000000000000000000000000000000000116112bb5760405162461bcd60e51b815260040161038990611556565b7f0000000000000000000000000000000000000000000000000000000000000000151560010361137c57336001600160a01b037f0000000000000000000000000000000000000000000000000000000000000000161461131a57600080fd5b60025460405163d45e3f3760e01b81523060048201526001600160a01b039091169063d45e3f3790602401600060405180830381600087803b15801561135f57600080fd5b505af1158015611373573d6000803e3d6000fd5b5050505061140f565b336001600160a01b037f000000000000000000000000000000000000000000000000000000000000000016146113b157600080fd5b60025460405163d45e3f3760e01b81523060048201526001600160a01b039091169063d45e3f3790602401600060405180830381600087803b1580156113f657600080fd5b505af115801561140a573d6000803e3d6000fd5b505050505b7f00000000000000000000000000000000000000000000000000000000000000006001600160a01b03167f00000000000000000000000000000000000000000000000000000000000000006001600160a01b0316306001600160a01b03167fc7a53bb77240386ec61de42e9fc5532fe1f2841ffbb12ac1bac898849e72bbe260405160405180910390a4565b6040516001600160a01b03821660248201526114e39060440160408051601f198184030181529190526020810180516001600160e01b031663161765e160e11b1790526114e6565b50565b80516a636f6e736f6c652e6c6f67602083016000808483855afa5050505050565b80356001600160a01b038116811461151e57600080fd5b919050565b6000806040838503121561153657600080fd5b61153f83611507565b915061154d60208401611507565b90509250929050565b6020808252601390820152720a8d2dacad8dec6d640d0c2e640ccd2dcd2e6d606b1b604082015260600190565b60006020828403121561159557600080fd5b815180151581146115a557600080fd5b939250505056fea2646970667358221220ba556c1414114ca74ad4a2e16c9d308145b1cdb59e49b45bf9403cb311e61db864736f6c63430008180033","linkReferences":{}},"methodIdentifiers":{"adjudicator1()":"ce4d3c28","adjudicator2()":"559c17e9","adjudicator3()":"782ddae6","adjudicator4()":"c43151da","adjudicator5()":"672d619a","amount()":"aa8c217c","check_user_has_settled(address,address)":"9d9a38f7","dispute()":"f240f7c3","governance()":"5aa6e675","merchant()":"a5ff7651","on_ramp()":"821f1e8f","rollback_prestate()":"e7b96c35","router()":"f887ea40","settle()":"11da60b4","timelock()":"d33219b4","token()":"fc0c546a","unlock_funds()":"b619d957","user()":"4f8632ba"},"id":34}