{"abi":[{"type":"constructor","inputs":[{"name":"_adjudicator1","type":"address","internalType":"address"},{"name":"_adjudicator2","type":"address","internalType":"address"},{"name":"_adjudicator3","type":"address","internalType":"address"},{"name":"_adjudicator4","type":"address","internalType":"address"},{"name":"_adjudicator5","type":"address","internalType":"address"},{"name":"_router","type":"address","internalType":"address"}],"stateMutability":"nonpayable"},{"type":"function","name":"add_vote_dispute","inputs":[{"name":"escrow","type":"address","internalType":"address"}],"outputs":[],"stateMutability":"nonpayable"},{"type":"function","name":"adjudicator1","inputs":[],"outputs":[{"name":"","type":"address","internalType":"address"}],"stateMutability":"view"},{"type":"function","name":"adjudicator2","inputs":[],"outputs":[{"name":"","type":"address","internalType":"address"}],"stateMutability":"view"},{"type":"function","name":"adjudicator3","inputs":[],"outputs":[{"name":"","type":"address","internalType":"address"}],"stateMutability":"view"},{"type":"function","name":"adjudicator4","inputs":[],"outputs":[{"name":"","type":"address","internalType":"address"}],"stateMutability":"view"},{"type":"function","name":"adjudicator5","inputs":[],"outputs":[{"name":"","type":"address","internalType":"address"}],"stateMutability":"view"},{"type":"function","name":"get_the_five_adjudicator","inputs":[],"outputs":[{"name":"","type":"address","internalType":"address"},{"name":"","type":"address","internalType":"address"},{"name":"","type":"address","internalType":"address"},{"name":"","type":"address","internalType":"address"},{"name":"","type":"address","internalType":"address"}],"stateMutability":"view"},{"type":"function","name":"router","inputs":[],"outputs":[{"name":"","type":"address","internalType":"contract IRouter"}],"stateMutability":"view"},{"type":"function","name":"vote","inputs":[{"name":"escrow","type":"address","internalType":"address"},{"name":"side","type":"bool","internalType":"bool"}],"outputs":[],"stateMutability":"nonpayable"},{"type":"function","name":"voted","inputs":[{"name":"","type":"address","internalType":"address"},{"name":"","type":"address","internalType":"address"}],"outputs":[{"name":"","type":"bool","internalType":"bool"}],"stateMutability":"view"},{"type":"function","name":"votingMap","inputs":[{"name":"","type":"address","internalType":"address"}],"outputs":[{"name":"escrow","type":"address","internalType":"address"},{"name":"merchantVotes","type":"uint256","internalType":"uint256"},{"name":"userVotes","type":"uint256","internalType":"uint256"},{"name":"timeVote","type":"uint256","internalType":"uint256"},{"name":"done","type":"bool","internalType":"bool"}],"stateMutability":"view"},{"type":"event","name":"DisputeHappen","inputs":[{"name":"escrow","type":"address","indexed":true,"internalType":"address"},{"name":"timeVote","type":"uint256","indexed":false,"internalType":"uint256"}],"anonymous":false},{"type":"event","name":"Voted","inputs":[{"name":"adjudicator","type":"address","indexed":true,"internalType":"address"},{"name":"side","type":"bool","indexed":false,"internalType":"bool"}],"anonymous":false}],"bytecode":{"object":"0x608060405234801561001057600080fd5b50604051610a36380380610a3683398101604081905261002f916100bd565b600080546001600160a01b03199081166001600160a01b0398891617909155600180548216968816969096179095556002805486169487169490941790935560038054851692861692909217909155600480548416918516919091179055600580549092169216919091179055610131565b80516001600160a01b03811681146100b857600080fd5b919050565b60008060008060008060c087890312156100d657600080fd5b6100df876100a1565b95506100ed602088016100a1565b94506100fb604088016100a1565b9350610109606088016100a1565b9250610117608088016100a1565b915061012560a088016100a1565b90509295509295509295565b6108f6806101406000396000f3fe608060405234801561001057600080fd5b50600436106100a95760003560e01c8063a3b0b70011610071578063a3b0b700146101c0578063bd041c4d1461020a578063c43151da1461021f578063ce4d3c2814610232578063d45e3f3714610245578063f887ea401461025857600080fd5b8063099ae208146100ae578063559c17e914610131578063672d619a1461015c578063782ddae61461016f5780638f59c06614610182575b600080fd5b6100f86100bc3660046107b6565b600660205260009081526040902080546001820154600283015460038401546004909401546001600160a01b0390931693919290919060ff1685565b604080516001600160a01b03909616865260208601949094529284019190915260608301521515608082015260a0015b60405180910390f35b600154610144906001600160a01b031681565b6040516001600160a01b039091168152602001610128565b600454610144906001600160a01b031681565b600254610144906001600160a01b031681565b6101b06101903660046107da565b600760209081526000928352604080842090915290825290205460ff1681565b6040519015158152602001610128565b600054600154600254600354600454604080516001600160a01b0396871681529486166020860152928516928401929092528316606083015291909116608082015260a001610128565b61021d610218366004610813565b61026b565b005b600354610144906001600160a01b031681565b600054610144906001600160a01b031681565b61021d6102533660046107b6565b6104f4565b600554610144906001600160a01b031681565b6001600160a01b03808316600081815260066020526040902054909116146102ce5760405162461bcd60e51b8152602060048201526011602482015270111a5cdc1d5d19481b9bdd08199bdd5b99607a1b60448201526064015b60405180910390fd5b6001600160a01b03821660009081526006602052604090206003015442111561032c5760405162461bcd60e51b815260206004820152601060248201526f151a5b59481a185cc81c985b881bdd5d60821b60448201526064016102c5565b6000546001600160a01b031633148061034f57506001546001600160a01b031633145b8061036457506002546001600160a01b031633145b8061037957506003546001600160a01b031633145b8061038e57506004546001600160a01b031633145b6103e95760405162461bcd60e51b815260206004820152602660248201527f596f7520617265206e6f742061646a7564696361746f7220736f20752063616e6044820152657420766f746560d01b60648201526084016102c5565b801515600103610459576001600160a01b03821660009081526006602052604081206001908101805491929091610421908490610846565b90915550506001600160a01b03821660009081526007602090815260408083203384529091529020805460ff191660011790556104b9565b6001600160a01b0382166000908152600660205260408120600201805460019290610485908490610846565b90915550506001600160a01b03821660009081526007602090815260408083203384529091529020805460ff191660011790555b604051811515815233907f8eb81cb806dbb3d8a2f94981614331a55dfd90e06a42fdc362ca3ca96981d92f9060200160405180910390a25050565b6001600160a01b03808216600081815260066020526040902054909116036105575760405162461bcd60e51b8152602060048201526016602482015275446973707574652068617665206265656e206d61646560501b60448201526064016102c5565b6005546040516310c333cf60e01b81526001600160a01b03838116600483015260009283928392839216906310c333cf90602401608060405180830381865afa1580156105a8573d6000803e3d6000fd5b505050506040513d601f19601f820116820180604052508101906105cc919061086d565b93509350935093508060001415806105ec57506001600160a01b03821615155b806105ff57506001600160a01b03831615155b6106435760405162461bcd60e51b8152602060048201526015602482015274151c985b9cd858dd1a5bdb881b9bdd08199bdd5b99605a1b60448201526064016102c5565b336001600160a01b038616146106ac5760405162461bcd60e51b815260206004820152602860248201527f536f6d656f6e652069732063616c6c696e67206974206f7574736964652074686044820152676520657363726f7760c01b60648201526084016102c5565b60006040518060a00160405280876001600160a01b03168152602001600081526020016000815260200142620151806106e59190610846565b8152600060209182018190526001600160a01b0389811680835260068452604092839020855181546001600160a01b03191693169290921782559284015160018201559083015160028201556060830151600382015560808301516004909101805460ff19169115159190911790559091507f2d42096e3cdeb47aa4a8cdbd865a39d73573296eb83304e086a91cf34aacbde66107854262015180610846565b60405190815260200160405180910390a2505050505050565b6001600160a01b03811681146107b357600080fd5b50565b6000602082840312156107c857600080fd5b81356107d38161079e565b9392505050565b600080604083850312156107ed57600080fd5b82356107f88161079e565b915060208301356108088161079e565b809150509250929050565b6000806040838503121561082657600080fd5b82356108318161079e565b91506020830135801515811461080857600080fd5b8082018082111561086757634e487b7160e01b600052601160045260246000fd5b92915050565b6000806000806080858703121561088357600080fd5b845161088e8161079e565b602086015190945061089f8161079e565b60408601519093506108b08161079e565b606095909501519396929550505056fea2646970667358221220d859d943e291cc3adedc92810b17152f1ff8e070b95479a1c0a7fd8c6799438864736f6c63430008180033","linkReferences":{}},"methodIdentifiers":{"add_vote_dispute(address)":"d45e3f37","adjudicator1()":"ce4d3c28","adjudicator2()":"559c17e9","adjudicator3()":"782ddae6","adjudicator4()":"c43151da","adjudicator5()":"672d619a","get_the_five_adjudicator()":"a3b0b700","router()":"f887ea40","vote(address,bool)":"bd041c4d","voted(address,address)":"8f59c066","votingMap(address)":"099ae208"},"id":35}