{"abi":[{"type":"constructor","inputs":[{"name":"_token","type":"address","internalType":"address"}],"stateMutability":"nonpayable"},{"type":"function","name":"checkMerchant","inputs":[{"name":"user","type":"address","internalType":"address"}],"outputs":[{"name":"","type":"bool","internalType":"bool"}],"stateMutability":"view"},{"type":"function","name":"getLengthOfOffer","inputs":[],"outputs":[{"name":"","type":"uint256","internalType":"uint256"}],"stateMutability":"view"},{"type":"function","name":"getMerchantData","inputs":[{"name":"user","type":"address","internalType":"address"}],"outputs":[{"name":"","type":"tuple","internalType":"struct RegistryMerchants.MerchantData","components":[{"name":"user","type":"address","internalType":"address"},{"name":"status","type":"uint8","internalType":"enum RegistryMerchants.Status"}]}],"stateMutability":"view"},{"type":"function","name":"getMerchantPost","inputs":[{"name":"user","type":"address","internalType":"address"},{"name":"id","type":"uint256","internalType":"uint256"}],"outputs":[{"name":"","type":"uint256","internalType":"uint256"}],"stateMutability":"view"},{"type":"function","name":"getOfferPostStatus","inputs":[{"name":"id","type":"uint256","internalType":"uint256"}],"outputs":[{"name":"","type":"bool","internalType":"bool"}],"stateMutability":"view"},{"type":"function","name":"getStatus","inputs":[{"name":"user","type":"address","internalType":"address"}],"outputs":[{"name":"","type":"bool","internalType":"bool"}],"stateMutability":"view"},{"type":"function","name":"offerId","inputs":[],"outputs":[{"name":"","type":"uint256","internalType":"uint256"}],"stateMutability":"view"},{"type":"function","name":"offers","inputs":[{"name":"","type":"uint256","internalType":"uint256"}],"outputs":[{"name":"id","type":"uint256","internalType":"uint256"},{"name":"user","type":"address","internalType":"address"},{"name":"amount","type":"uint256","internalType":"uint256"},{"name":"symbol","type":"string","internalType":"string"},{"name":"fiatAmount","type":"uint256","internalType":"uint256"},{"name":"on_ramp","type":"bool","internalType":"bool"}],"stateMutability":"view"},{"type":"function","name":"postOffer","inputs":[{"name":"user","type":"address","internalType":"address"},{"name":"amount","type":"uint256","internalType":"uint256"},{"name":"on_ramp","type":"bool","internalType":"bool"},{"name":"symbol","type":"string","internalType":"string"},{"name":"fiatAmount","type":"uint256","internalType":"uint256"}],"outputs":[],"stateMutability":"nonpayable"},{"type":"function","name":"registerMerchant","inputs":[{"name":"user","type":"address","internalType":"address"}],"outputs":[],"stateMutability":"nonpayable"},{"type":"function","name":"token","inputs":[],"outputs":[{"name":"","type":"address","internalType":"contract IERC20"}],"stateMutability":"view"},{"type":"function","name":"vault","inputs":[],"outputs":[{"name":"","type":"address","internalType":"address"}],"stateMutability":"view"},{"type":"event","name":"OfferPosted","inputs":[{"name":"user","type":"address","indexed":true,"internalType":"address"},{"name":"id","type":"uint256","indexed":true,"internalType":"uint256"},{"name":"collateral","type":"uint256","indexed":false,"internalType":"uint256"}],"anonymous":false},{"type":"event","name":"Registered","inputs":[{"name":"user","type":"address","indexed":true,"internalType":"address"}],"anonymous":false}],"bytecode":{"object":"0x6080604052600060055534801561001557600080fd5b5060405161100e38038061100e83398101604081905261003491610059565b600080546001600160a01b0319166001600160a01b0392909216919091179055610089565b60006020828403121561006b57600080fd5b81516001600160a01b038116811461008257600080fd5b9392505050565b610f76806100986000396000f3fe608060405234801561001057600080fd5b50600436106100b45760003560e01c80638a72ea6a116100715780638a72ea6a1461016a578063a4b79fd81461018f578063a60f4717146101a2578063d2cb0093146101b5578063fbfa77cf146101bd578063fc0c546a146101e857600080fd5b80630255ff52146100b957806321ce9f91146100e257806330ccebb5146100f95780634fa972ac1461011c578063584ba2f1146101425780638910100e14610157575b600080fd5b6100cc6100c7366004610b93565b6101fb565b6040516100d99190610bcb565b60405180910390f35b6100eb60055481565b6040519081526020016100d9565b61010c610107366004610b93565b610276565b60405190151581526020016100d9565b61010c61012a366004610c0d565b60009081526004602052604090206005015460ff1690565b610155610150366004610b93565b6102c7565b005b6100eb610165366004610c26565b6103ed565b61017d610178366004610c0d565b610468565b6040516100d996959493929190610c50565b61015561019d366004610ce9565b61054a565b61010c6101b0366004610b93565b610a31565b6002546100eb565b6001546101d0906001600160a01b031681565b6040516001600160a01b0390911681526020016100d9565b6000546101d0906001600160a01b031681565b60408051808201909152600080825260208201526001600160a01b03828116600090815260036020908152604091829020825180840190935280549384168352919290830190600160a01b900460ff16600181111561025c5761025c610bb5565b600181111561026d5761026d610bb5565b90525092915050565b6000806001600160a01b038316600090815260036020526040902054600160a01b900460ff1660018111156102ad576102ad610bb5565b036102ba57506001919050565b506000919050565b919050565b6102d033610b10565b6001600160a01b038082166000818152600360205260409020549091160361033f5760405162461bcd60e51b815260206004820152601a60248201527f546865206d65726368616e74206973207265676973746572656400000000000060448201526064015b60405180910390fd5b6040805180820182526001600160a01b038381168083526000602080850182815292825260039052939093208251815492166001600160a01b0319831681178255935192938493919283916001600160a81b031990911617600160a01b8360018111156103ae576103ae610bb5565b0217905550506040516001600160a01b03841691507f2d3734a8e47ac8316e500ac231c90a6e1848ca2285f40d07eaa52005e4b3a0e990600090a25050565b6000818152600460205260408120600101546001600160a01b0384811691161461044e5760405162461bcd60e51b8152602060048201526012602482015271139bc81cdd58da081d5cd95c88195e1a5cdd60721b6044820152606401610336565b506000818152600460205260409020600201545b92915050565b6002818154811061047857600080fd5b600091825260209091206006909102018054600182015460028301546003840180549395506001600160a01b039092169390929091906104b790610dd4565b80601f01602080910402602001604051908101604052809291908181526020018280546104e390610dd4565b80156105305780601f1061050557610100808354040283529160200191610530565b820191906000526020600020905b81548152906001019060200180831161051357829003601f168201915b50505050600483015460059093015491929160ff16905086565b8215156001036107c1576001600160a01b03808616600081815260036020526040902054909116146105b45760405162461bcd60e51b81526020600482015260136024820152722737ba103a3432903ab9b2b91034ba39b2b63360691b6044820152606401610336565b6001600560008282546105c79190610e0e565b90915550506040805160c0810182526005548082526001600160a01b0388811660208085019182528486018a815260608601898152608087018990528a151560a088015260009586526004909252959093208451815590516001820180546001600160a01b031916919093161790915592516002840155519091829160038201906106529082610e80565b506080820151600482015560a0909101516005909101805460ff19169115159190911790556002805460018101825560009190915281517f405787fa12a823e0f2b7631cc41b3ba8828b3321ca811111fa75cd3aa3bb5ace600690920291820190815560208301517f405787fa12a823e0f2b7631cc41b3ba8828b3321ca811111fa75cd3aa3bb5acf830180546001600160a01b0319166001600160a01b0390921691909117905560408301517f405787fa12a823e0f2b7631cc41b3ba8828b3321ca811111fa75cd3aa3bb5ad0830155606083015183927f405787fa12a823e0f2b7631cc41b3ba8828b3321ca811111fa75cd3aa3bb5ad101906107579082610e80565b506080820151600482015560a0909101516005918201805460ff1916911515919091179055546040518681526001600160a01b038816907feab0480d47eeed18a5a29d664583f56a9e5d754cd4da7dd4640b89da24949e889060200160405180910390a350610a2a565b6001600160a01b03808616600081815260036020526040902054909116146108215760405162461bcd60e51b81526020600482015260136024820152722737ba103a3432903ab9b2b91034ba39b2b63360691b6044820152606401610336565b6001600560008282546108349190610e0e565b90915550506040805160c0810182526005548082526001600160a01b0388811660208085019182528486018a815260608601898152608087018990528a151560a088015260009586526004909252959093208451815590516001820180546001600160a01b031916919093161790915592516002840155519091829160038201906108bf9082610e80565b506080820151600482015560a0909101516005909101805460ff19169115159190911790556002805460018101825560009190915281517f405787fa12a823e0f2b7631cc41b3ba8828b3321ca811111fa75cd3aa3bb5ace600690920291820190815560208301517f405787fa12a823e0f2b7631cc41b3ba8828b3321ca811111fa75cd3aa3bb5acf830180546001600160a01b0319166001600160a01b0390921691909117905560408301517f405787fa12a823e0f2b7631cc41b3ba8828b3321ca811111fa75cd3aa3bb5ad0830155606083015183927f405787fa12a823e0f2b7631cc41b3ba8828b3321ca811111fa75cd3aa3bb5ad101906109c49082610e80565b506080820151600482015560a0909101516005918201805460ff1916911515919091179055546040518681526001600160a01b038816907feab0480d47eeed18a5a29d664583f56a9e5d754cd4da7dd4640b89da24949e889060200160405180910390a3505b5050505050565b6001600160a01b0380821660008181526003602052604081205490921614610a905760405162461bcd60e51b8152602060048201526012602482015271139bc81cdd58da081d5cd95c88195e1a5cdd60721b6044820152606401610336565b60006001600160a01b038316600090815260036020526040902054600160a01b900460ff166001811115610ac657610ac6610bb5565b14610b085760405162461bcd60e51b815260206004820152601260248201527155736572206973206e6f742061637469766560701b6044820152606401610336565b506001919050565b6040516001600160a01b0382166024820152610b589060440160408051601f198184030181529190526020810180516001600160e01b031663161765e160e11b179052610b5b565b50565b80516a636f6e736f6c652e6c6f67602083016000808483855afa5050505050565b80356001600160a01b03811681146102c257600080fd5b600060208284031215610ba557600080fd5b610bae82610b7c565b9392505050565b634e487b7160e01b600052602160045260246000fd5b81516001600160a01b031681526020820151604082019060028110610c0057634e487b7160e01b600052602160045260246000fd5b8060208401525092915050565b600060208284031215610c1f57600080fd5b5035919050565b60008060408385031215610c3957600080fd5b610c4283610b7c565b946020939093013593505050565b8681526000602060018060a01b038816602084015286604084015260c0606084015285518060c085015260005b81811015610c995787810183015185820160e001528201610c7d565b50600060e0828601015260e0601f19601f83011685010192505050836080830152610cc860a083018415159052565b979650505050505050565b634e487b7160e01b600052604160045260246000fd5b600080600080600060a08688031215610d0157600080fd5b610d0a86610b7c565b94506020860135935060408601358015158114610d2657600080fd5b9250606086013567ffffffffffffffff80821115610d4357600080fd5b818801915088601f830112610d5757600080fd5b813581811115610d6957610d69610cd3565b604051601f8201601f19908116603f01168101908382118183101715610d9157610d91610cd3565b816040528281528b6020848701011115610daa57600080fd5b82602086016020830137600092810160200192909252509699959850939660800135949350505050565b600181811c90821680610de857607f821691505b602082108103610e0857634e487b7160e01b600052602260045260246000fd5b50919050565b8082018082111561046257634e487b7160e01b600052601160045260246000fd5b601f821115610e7b576000816000526020600020601f850160051c81016020861015610e585750805b601f850160051c820191505b81811015610e7757828155600101610e64565b5050505b505050565b815167ffffffffffffffff811115610e9a57610e9a610cd3565b610eae81610ea88454610dd4565b84610e2f565b602080601f831160018114610ee35760008415610ecb5750858301515b600019600386901b1c1916600185901b178555610e77565b600085815260208120601f198616915b82811015610f1257888601518255948401946001909101908401610ef3565b5085821015610f305787850151600019600388901b60f8161c191681555b5050505050600190811b0190555056fea264697066735822122017401bec898bc3bdd0a213008a349a18b503fac06a6f95eaac3dfa1f871d131d64736f6c63430008180033","linkReferences":{}},"methodIdentifiers":{"checkMerchant(address)":"a60f4717","getLengthOfOffer()":"d2cb0093","getMerchantData(address)":"0255ff52","getMerchantPost(address,uint256)":"8910100e","getOfferPostStatus(uint256)":"4fa972ac","getStatus(address)":"30ccebb5","offerId()":"21ce9f91","offers(uint256)":"8a72ea6a","postOffer(address,uint256,bool,string,uint256)":"a4b79fd8","registerMerchant(address)":"584ba2f1","token()":"fc0c546a","vault()":"fbfa77cf"},"id":37}