{"abi":[{"type":"constructor","inputs":[{"name":"_registry","type":"address","internalType":"address"},{"name":"_token","type":"address","internalType":"address"}],"stateMutability":"nonpayable"},{"type":"function","name":"change_status_of_transaction","inputs":[{"name":"escrow","type":"address","internalType":"address"},{"name":"user","type":"address","internalType":"address"}],"outputs":[],"stateMutability":"nonpayable"},{"type":"function","name":"get_escrow_data","inputs":[{"name":"escrow","type":"address","internalType":"address"}],"outputs":[{"name":"","type":"address","internalType":"address"},{"name":"","type":"address","internalType":"address"},{"name":"","type":"address","internalType":"address"},{"name":"","type":"uint256","internalType":"uint256"}],"stateMutability":"view"},{"type":"function","name":"get_status_of_transaction","inputs":[{"name":"escrow","type":"address","internalType":"address"}],"outputs":[{"name":"","type":"bool","internalType":"bool"}],"stateMutability":"view"},{"type":"function","name":"governance","inputs":[],"outputs":[{"name":"","type":"address","internalType":"address"}],"stateMutability":"view"},{"type":"function","name":"off_ramp","inputs":[{"name":"merchant","type":"address","internalType":"address"},{"name":"adjudicator1","type":"address","internalType":"address"},{"name":"adjudicator2","type":"address","internalType":"address"},{"name":"adjudicator3","type":"address","internalType":"address"},{"name":"adjudicator4","type":"address","internalType":"address"},{"name":"adjudicator5","type":"address","internalType":"address"},{"name":"id","type":"uint256","internalType":"uint256"}],"outputs":[],"stateMutability":"nonpayable"},{"type":"function","name":"on_ramp","inputs":[{"name":"merchant","type":"address","internalType":"address"},{"name":"adjudicator1","type":"address","internalType":"address"},{"name":"adjudicator2","type":"address","internalType":"address"},{"name":"adjudicator3","type":"address","internalType":"address"},{"name":"adjudicator4","type":"address","internalType":"address"},{"name":"adjudicator5","type":"address","internalType":"address"},{"name":"id","type":"uint256","internalType":"uint256"}],"outputs":[],"stateMutability":"nonpayable"},{"type":"function","name":"postOffer","inputs":[{"name":"amount","type":"uint256","internalType":"uint256"},{"name":"on_ramp","type":"bool","internalType":"bool"},{"name":"symbol","type":"string","internalType":"string"},{"name":"fiatAmount","type":"uint256","internalType":"uint256"}],"outputs":[],"stateMutability":"nonpayable"},{"type":"function","name":"registerMerchant","inputs":[{"name":"collateral","type":"uint256","internalType":"uint256"}],"outputs":[],"stateMutability":"nonpayable"},{"type":"function","name":"registry","inputs":[],"outputs":[{"name":"","type":"address","internalType":"contract IRegistryMerchants"}],"stateMutability":"view"},{"type":"function","name":"set_governance","inputs":[{"name":"govcontract","type":"address","internalType":"address"}],"outputs":[],"stateMutability":"nonpayable"},{"type":"function","name":"token","inputs":[],"outputs":[{"name":"","type":"address","internalType":"address"}],"stateMutability":"view"},{"type":"event","name":"OffRampCreated","inputs":[{"name":"escrow","type":"address","indexed":true,"internalType":"address"},{"name":"merchant","type":"address","indexed":true,"internalType":"address"},{"name":"user","type":"address","indexed":true,"internalType":"address"},{"name":"amount","type":"uint256","indexed":false,"internalType":"uint256"}],"anonymous":false},{"type":"event","name":"OnRampCreated","inputs":[{"name":"escrow","type":"address","indexed":true,"internalType":"address"},{"name":"merchant","type":"address","indexed":true,"internalType":"address"},{"name":"user","type":"address","indexed":true,"internalType":"address"},{"name":"amount","type":"uint256","indexed":false,"internalType":"uint256"}],"anonymous":false}],"bytecode":{"object":"0x608060405234801561001057600080fd5b50604051612c9b380380612c9b83398101604081905261002f9161007c565b600080546001600160a01b039384166001600160a01b031991821617909155600280549290931691161790556100af565b80516001600160a01b038116811461007757600080fd5b919050565b6000806040838503121561008f57600080fd5b61009883610060565b91506100a660208401610060565b90509250929050565b612bdd806100be6000396000f3fe60806040523480156200001157600080fd5b5060043610620000b75760003560e01c806362462d24116200007a57806362462d2414620001d65780636efc1c7614620001ed5780637b1039991462000204578063aca2023b1462000218578063fabcf06e1462000260578063fc0c546a146200027757600080fd5b8063070313fa14620000bc57806310c333cf14620000f15780631b0c6288146200017b57806356c5a80e14620001925780635aa6e67514620001a9575b600080fd5b620000ef620000cd36600462000e87565b600180546001600160a01b0319166001600160a01b0392909216919091179055565b005b6200013c6200010236600462000e87565b6001600160a01b03908116600090815260036020526040902080546006820154600783015460089093015491841694908416939290921691565b6040516200017294939291906001600160a01b039485168152928416602084015292166040820152606081019190915260800190565b60405180910390f35b620000ef6200018c36600462000ed4565b6200028b565b620000ef620001a336600462000fb5565b620002ff565b600154620001bd906001600160a01b031681565b6040516001600160a01b03909116815260200162000172565b620000ef620001e736600462001041565b62000752565b620000ef620001fe3660046200105b565b620007bb565b600054620001bd906001600160a01b031681565b6200024f6200022936600462000e87565b6001600160a01b0316600090815260036020526040902060090154610100900460ff1690565b604051901515815260200162000172565b620000ef6200027136600462000fb5565b62000a18565b600254620001bd906001600160a01b031681565b600054604051631496f3fb60e31b81526001600160a01b039091169063a4b79fd890620002c5903390889088908890889060040162001093565b600060405180830381600087803b158015620002e057600080fd5b505af1158015620002f5573d6000803e3d6000fd5b5050505050505050565b60005460405163a60f471760e01b81526001600160a01b0389811660048301529091169063a60f471790602401602060405180830381865afa1580156200034a573d6000803e3d6000fd5b505050506040513d601f19601f820116820180604052508101906200037091906200110b565b1515600114620003b65760405162461bcd60e51b815260206004820152600c60248201526b10da1958dac819985a5b195960a21b60448201526064015b60405180910390fd5b60008054604051634488080760e11b81526001600160a01b038a811660048301526024820185905290911690638910100e90604401602060405180830381865afa15801562000409573d6000803e3d6000fd5b505050506040513d601f19601f820116820180604052508101906200042f91906200112b565b6000546040516313ea5cab60e21b8152600481018590529192506001600160a01b031690634fa972ac90602401602060405180830381865afa1580156200047a573d6000803e3d6000fd5b505050506040513d601f19601f82011682018060405250810190620004a091906200110b565b15620004c05760405162461bcd60e51b8152600401620003ad9062001145565b60008833838a8a8a8a8a6000600260009054906101000a90046001600160a01b031642610384620004f291906200118b565b6001546040516001600160a01b03909116906200050f9062000e5c565b620005269c9b9a99989796959493929190620011b3565b604051809103906000f08015801562000543573d6000803e3d6000fd5b5090506000604051806101800160405280836001600160a01b031681526020018a6001600160a01b03168152602001896001600160a01b03168152602001886001600160a01b03168152602001876001600160a01b03168152602001866001600160a01b031681526020018b6001600160a01b03168152602001336001600160a01b0316815260200184815260200160001515815260200160001515815260200142610384620005f491906200118b565b90526001600160a01b03838116600081815260036020818152604092839020865181546001600160a01b0319908116918816919091178255878301516001830180548316918916919091179055878501516002830180548316918916919091179055606088015193820180548216948816949094179093556080870151600482018054851691881691909117905560a0870151600582018054851691881691909117905560c0870151600682018054851691881691909117905560e0870151600782018054909416908716179092556101008087015160088401556101208701516009840180546101408a015161ffff1990911692151561ff00191692909217911515909202179055610160860151600a9092019190915590518781529394503393928e16927fddb38a02a8693bdf2b1cbc1307921cbcf17bbd659b993ee5ec087ef80038d5ee91015b60405180910390a450505050505050505050565b600054604051634a8421b960e01b8152336004820152602481018390526001600160a01b0390911690634a8421b990604401600060405180830381600087803b1580156200079f57600080fd5b505af1158015620007b4573d6000803e3d6000fd5b5050505050565b6001600160a01b03808316600081815260036020526040902054909116146200081d5760405162461bcd60e51b8152602060048201526013602482015272115cd8dc9bddc8191bd95cdb9d08195e1a5cdd606a1b6044820152606401620003ad565b6001600160a01b03821660009081526003602052604090206009015460ff16151560010362000943576001600160a01b038216600090815260036020526040902060090154610100900460ff161515600103620008b35760405162461bcd60e51b81526020600482015260136024820152725472616e73616374696f6e20697320646f6e6560681b6044820152606401620003ad565b6001600160a01b03828116600090815260036020526040902060070154811690821614620009175760405162461bcd60e51b815260206004820152601060248201526f24ba39903737ba103a3432903ab9b2b960811b6044820152606401620003ad565b6001600160a01b0382166000908152600360205260409020600901805461ff0019166101001790555050565b6001600160a01b038216600090815260036020526040902060090154610100900460ff161515600103620009b05760405162461bcd60e51b81526020600482015260136024820152725472616e73616374696f6e20697320646f6e6560681b6044820152606401620003ad565b6001600160a01b03828116600090815260036020526040902060070154811690821614620009175760405162461bcd60e51b8152602060048201526014602482015273125d1cc81b9bdd081d1a19481b595c98da185b9d60621b6044820152606401620003ad565b60005460405163a60f471760e01b81526001600160a01b0389811660048301529091169063a60f471790602401602060405180830381865afa15801562000a63573d6000803e3d6000fd5b505050506040513d601f19601f8201168201806040525081019062000a8991906200110b565b151560011462000acb5760405162461bcd60e51b815260206004820152600c60248201526b10da1958dac819985a5b195960a21b6044820152606401620003ad565b60008054604051634488080760e11b81526001600160a01b038a811660048301526024820185905290911690638910100e90604401602060405180830381865afa15801562000b1e573d6000803e3d6000fd5b505050506040513d601f19601f8201168201806040525081019062000b4491906200112b565b6000546040516313ea5cab60e21b8152600481018590529192506001600160a01b031690634fa972ac90602401602060405180830381865afa15801562000b8f573d6000803e3d6000fd5b505050506040513d601f19601f8201168201806040525081019062000bb591906200110b565b151560011462000bd95760405162461bcd60e51b8152600401620003ad9062001145565b60008833838a8a8a8a8a6001600260009054906101000a90046001600160a01b03164261038462000c0b91906200118b565b6001546040516001600160a01b039091169062000c289062000e5c565b62000c3f9c9b9a99989796959493929190620011b3565b604051809103906000f08015801562000c5c573d6000803e3d6000fd5b5090506000604051806101800160405280836001600160a01b031681526020018a6001600160a01b03168152602001896001600160a01b03168152602001886001600160a01b03168152602001876001600160a01b03168152602001866001600160a01b031681526020018b6001600160a01b03168152602001336001600160a01b031681526020018481526020016001151581526020016000151581526020014261038462000d0d91906200118b565b90526001600160a01b03838116600081815260036020818152604092839020865181546001600160a01b0319908116918816919091178255878301516001830180548316918916919091179055878501516002830180548316918916919091179055606088015193820180548216948816949094179093556080870151600482018054851691881691909117905560a0870151600582018054851691881691909117905560c0870151600682018054851691881691909117905560e0870151600782018054909416908716179092556101008087015160088401556101208701516009840180546101408a015161ffff1990911692151561ff00191692909217911515909202179055610160860151600a9092019190915590518781529394503393928e16927fb9a6faa98fc91584b6af91869eb430d161455a7a1b11de23ea8b37f5554b281791016200073e565b61196b806200123d83390190565b80356001600160a01b038116811462000e8257600080fd5b919050565b60006020828403121562000e9a57600080fd5b62000ea58262000e6a565b9392505050565b801515811462000ebb57600080fd5b50565b634e487b7160e01b600052604160045260246000fd5b6000806000806080858703121562000eeb57600080fd5b84359350602085013562000eff8162000eac565b9250604085013567ffffffffffffffff8082111562000f1d57600080fd5b818701915087601f83011262000f3257600080fd5b81358181111562000f475762000f4762000ebe565b604051601f8201601f19908116603f0116810190838211818310171562000f725762000f7262000ebe565b816040528281528a602084870101111562000f8c57600080fd5b826020860160208301376000928101602001929092525095989497509495606001359450505050565b600080600080600080600060e0888a03121562000fd157600080fd5b62000fdc8862000e6a565b965062000fec6020890162000e6a565b955062000ffc6040890162000e6a565b94506200100c6060890162000e6a565b93506200101c6080890162000e6a565b92506200102c60a0890162000e6a565b915060c0880135905092959891949750929550565b6000602082840312156200105457600080fd5b5035919050565b600080604083850312156200106f57600080fd5b6200107a8362000e6a565b91506200108a6020840162000e6a565b90509250929050565b60018060a01b038616815260006020866020840152851515604084015260a0606084015284518060a085015260005b81811015620010e05786810183015185820160c001528201620010c2565b50600060c0828601015260c0601f19601f830116850101925050508260808301529695505050505050565b6000602082840312156200111e57600080fd5b815162000ea58162000eac565b6000602082840312156200113e57600080fd5b5051919050565b60208082526026908201527f546865206964206973206e6f7420666f756e64206f722069747320616e206f666040820152650662072616d760d41b606082015260800190565b80820180821115620011ad57634e487b7160e01b600052601160045260246000fd5b92915050565b6001600160a01b038d811682528c81166020830152604082018c90528a81166060830152898116608083015288811660a083015287811660c083015286811660e083015285151561010083015284166101208201526101808101836101408301526200122b6101608301846001600160a01b03169052565b9d9c5050505050505050505050505056fe6101c06040523480156200001257600080fd5b506040516200196b3803806200196b8339810160408190526200003591620000d4565b6001600160a01b0398891660805296881660a05294871660c05292861660e052908516610100529684166101205294831661014052610160939093529315156101a052600080549382166001600160a01b03199485161790556001805484163317905561018091909152600280549390911692909116919091179055620001bd565b80516001600160a01b0381168114620000cf57600080fd5b919050565b6000806000806000806000806000806000806101808d8f031215620000f857600080fd5b620001038d620000b7565b9b506200011360208e01620000b7565b9a5060408d015199506200012a60608e01620000b7565b98506200013a60808e01620000b7565b97506200014a60a08e01620000b7565b96506200015a60c08e01620000b7565b95506200016a60e08e01620000b7565b94506101008d015180151581146200018157600080fd5b9350620001926101208e01620000b7565b92506101408d01519150620001ab6101608e01620000b7565b90509295989b509295989b509295989b565b60805160a05160c05160e05161010051610120516101405161016051610180516101a0516115e262000389600039600081816101f6015281816103940152818161089c015281816108da0152818161098701528181610ff001526112bd0152600081816102f20152818161034d0152818161094901528181610f82015261127f015260008181610267015281816104ee0152818161059d01528181610727015281816107d601528181610ba201528181610c6401528181610e8f01528181610f510152818161105a0152818161111c0152818161118c015261124e01526000818161012a015281816105fa01528181610683015281816106f9015281816107a70152818161082701528181610b7a01528181610c1901528181610ca601528181610de00152818161116401528181611203015281816113870152611411015260008181610240015281816103c601528181610446015281816104c00152818161056e01528181610851015281816109b901528181610af301528181610e6701528181610f0601528181611032015281816110d1015281816112f0015261143b015260006101a8015260006102a4015260006101cf0152600061016e015260006102cb01526115e26000f3fe608060405234801561001057600080fd5b50600436106101165760003560e01c8063aa8c217c116100a2578063d33219b411610071578063d33219b4146102ed578063e7b96c3514610314578063f240f7c31461031c578063f887ea4014610324578063fc0c546a1461033757600080fd5b8063aa8c217c14610262578063b619d95714610297578063c43151da1461029f578063ce4d3c28146102c657600080fd5b8063672d619a116100e9578063672d619a146101a3578063782ddae6146101ca578063821f1e8f146101f15780639d9a38f714610228578063a5ff76511461023b57600080fd5b806311da60b41461011b5780634f8632ba14610125578063559c17e9146101695780635aa6e67514610190575b600080fd5b61012361034a565b005b61014c7f000000000000000000000000000000000000000000000000000000000000000081565b6040516001600160a01b0390911681526020015b60405180910390f35b61014c7f000000000000000000000000000000000000000000000000000000000000000081565b60025461014c906001600160a01b031681565b61014c7f000000000000000000000000000000000000000000000000000000000000000081565b61014c7f000000000000000000000000000000000000000000000000000000000000000081565b6102187f000000000000000000000000000000000000000000000000000000000000000081565b6040519015158152602001610160565b61014c610236366004611523565b6108d6565b61014c7f000000000000000000000000000000000000000000000000000000000000000081565b6102897f000000000000000000000000000000000000000000000000000000000000000081565b604051908152602001610160565b610123610946565b61014c7f000000000000000000000000000000000000000000000000000000000000000081565b61014c7f000000000000000000000000000000000000000000000000000000000000000081565b6102897f000000000000000000000000000000000000000000000000000000000000000081565b610123610f7f565b61012361127c565b60015461014c906001600160a01b031681565b60005461014c906001600160a01b031681565b427f0000000000000000000000000000000000000000000000000000000000000000116103925760405162461bcd60e51b815260040161038990611556565b60405180910390fd5b7f000000000000000000000000000000000000000000000000000000000000000015156001036105f0576001600160a01b037f000000000000000000000000000000000000000000000000000000000000000081166000818152600360205260409020549091160361043b5760405162461bcd60e51b8152602060048201526012602482015271536574746c656d656e74206973206d61646560701b6044820152606401610389565b336001600160a01b037f000000000000000000000000000000000000000000000000000000000000000016146104a65760405162461bcd60e51b815260206004820152601060248201526f139bdd081d1a19481b595c98da185b9d60821b6044820152606401610389565b6000546040516323b872dd60e01b81526001600160a01b037f0000000000000000000000000000000000000000000000000000000000000000811660048301523060248301527f00000000000000000000000000000000000000000000000000000000000000006044830152909116906323b872dd906064016020604051808303816000875af115801561053e573d6000803e3d6000fd5b505050506040513d601f19601f820116820180604052508101906105629190611583565b506040805180820182527f00000000000000000000000000000000000000000000000000000000000000006001600160a01b039081168083527f00000000000000000000000000000000000000000000000000000000000000006020808501918252600092835260039052939020915182546001600160a01b03191691161781559051600190910155610825565b6001600160a01b037f000000000000000000000000000000000000000000000000000000000000000081166000818152600360205260409020549091160361066f5760405162461bcd60e51b8152602060048201526012602482015271536574746c656d656e74206973206d61646560701b6044820152606401610389565b6106783361149b565b336001600160a01b037f000000000000000000000000000000000000000000000000000000000000000016146106df5760405162461bcd60e51b815260206004820152600c60248201526b2737ba103a3432903ab9b2b960a11b6044820152606401610389565b6000546040516323b872dd60e01b81526001600160a01b037f0000000000000000000000000000000000000000000000000000000000000000811660048301523060248301527f00000000000000000000000000000000000000000000000000000000000000006044830152909116906323b872dd906064016020604051808303816000875af1158015610777573d6000803e3d6000fd5b505050506040513d601f19601f8201168201806040525081019061079b9190611583565b506040805180820182527f00000000000000000000000000000000000000000000000000000000000000006001600160a01b039081168083527f00000000000000000000000000000000000000000000000000000000000000006020808501918252600092835260039052939020915182546001600160a01b031916911617815590516001909101555b7f00000000000000000000000000000000000000000000000000000000000000006001600160a01b03167f00000000000000000000000000000000000000000000000000000000000000006001600160a01b03167f0aad25fe9eccd23f931301ccbd59b5928e1b9f895ae975c675799a8cf0709f637f00000000000000000000000000000000000000000000000000000000000000006040516108cc911515815260200190565b60405180910390a3565b60007f0000000000000000000000000000000000000000000000000000000000000000151560010361092357506001600160a01b0380821660009081526003602052604090205416610940565b506001600160a01b03808316600090815260036020526040902054165b92915050565b427f0000000000000000000000000000000000000000000000000000000000000000116109855760405162461bcd60e51b815260040161038990611556565b7f00000000000000000000000000000000000000000000000000000000000000001515600103610c9c576001600160a01b037f0000000000000000000000000000000000000000000000000000000000000000811660008181526003602052604090205490911614610a395760405162461bcd60e51b815260206004820152601c60248201527f5468657265206973206e6f207472616e73616374696f6e206d616465000000006044820152606401610389565b60015460405163aca2023b60e01b81523060048201526001600160a01b039091169063aca2023b90602401602060405180830381865afa158015610a81573d6000803e3d6000fd5b505050506040513d601f19601f82011682018060405250810190610aa59190611583565b15610ae85760405162461bcd60e51b81526020600482015260136024820152725472616e73616374696f6e20697320646f6e6560681b6044820152606401610389565b336001600160a01b037f00000000000000000000000000000000000000000000000000000000000000001614610b605760405162461bcd60e51b815260206004820152601a60248201527f43616c6c6572206973206e6f7420746865206d65726368616e740000000000006044820152606401610389565b60005460405163a9059cbb60e01b81526001600160a01b037f0000000000000000000000000000000000000000000000000000000000000000811660048301527f000000000000000000000000000000000000000000000000000000000000000060248301529091169063a9059cbb906044016020604051808303816000875af1158015610bf2573d6000803e3d6000fd5b505050506040513d601f19601f82011682018060405250810190610c169190611583565b507f00000000000000000000000000000000000000000000000000000000000000006001600160a01b03167f7e187bf56d23cc278139f36660c1b9c56739b0518009319e389d2c33f7acc7d37f0000000000000000000000000000000000000000000000000000000000000000604051610c9291815260200190565b60405180910390a2565b6001600160a01b037f0000000000000000000000000000000000000000000000000000000000000000811660008181526003602052604090205490911614610d265760405162461bcd60e51b815260206004820152601c60248201527f5468657265206973206e6f207472616e73616374696f6e206d616465000000006044820152606401610389565b60015460405163aca2023b60e01b81523060048201526001600160a01b039091169063aca2023b90602401602060405180830381865afa158015610d6e573d6000803e3d6000fd5b505050506040513d601f19601f82011682018060405250810190610d929190611583565b15610dd55760405162461bcd60e51b81526020600482015260136024820152725472616e73616374696f6e20697320646f6e6560681b6044820152606401610389565b336001600160a01b037f00000000000000000000000000000000000000000000000000000000000000001614610e4d5760405162461bcd60e51b815260206004820152601a60248201527f43616c6c6572206973206e6f7420746865206d65726368616e740000000000006044820152606401610389565b60005460405163a9059cbb60e01b81526001600160a01b037f0000000000000000000000000000000000000000000000000000000000000000811660048301527f000000000000000000000000000000000000000000000000000000000000000060248301529091169063a9059cbb906044016020604051808303816000875af1158015610edf573d6000803e3d6000fd5b505050506040513d601f19601f82011682018060405250810190610f039190611583565b507f00000000000000000000000000000000000000000000000000000000000000006001600160a01b03167f7e187bf56d23cc278139f36660c1b9c56739b0518009319e389d2c33f7acc7d37f0000000000000000000000000000000000000000000000000000000000000000604051610c9291815260200190565b427f000000000000000000000000000000000000000000000000000000000000000010610fee5760405162461bcd60e51b815260206004820152601760248201527f54696d656c6f636b20686173206e6f742066696e6973680000000000000000006044820152606401610389565b7f0000000000000000000000000000000000000000000000000000000000000000151560010361114a5760005460405163a9059cbb60e01b81526001600160a01b037f0000000000000000000000000000000000000000000000000000000000000000811660048301527f000000000000000000000000000000000000000000000000000000000000000060248301529091169063a9059cbb906044016020604051808303816000875af11580156110aa573d6000803e3d6000fd5b505050506040513d601f19601f820116820180604052508101906110ce9190611583565b507f00000000000000000000000000000000000000000000000000000000000000006001600160a01b03167fb0dab850a55dfcf0a4e5f07265e415d145876d9c401230dfc6eed20e9af87f0d7f0000000000000000000000000000000000000000000000000000000000000000604051610c9291815260200190565b60005460405163a9059cbb60e01b81526001600160a01b037f0000000000000000000000000000000000000000000000000000000000000000811660048301527f000000000000000000000000000000000000000000000000000000000000000060248301529091169063a9059cbb906044016020604051808303816000875af11580156111dc573d6000803e3d6000fd5b505050506040513d601f19601f820116820180604052508101906112009190611583565b507f00000000000000000000000000000000000000000000000000000000000000006001600160a01b03167fb0dab850a55dfcf0a4e5f07265e415d145876d9c401230dfc6eed20e9af87f0d7f0000000000000000000000000000000000000000000000000000000000000000604051610c9291815260200190565b427f0000000000000000000000000000000000000000000000000000000000000000116112bb5760405162461bcd60e51b815260040161038990611556565b7f0000000000000000000000000000000000000000000000000000000000000000151560010361137c57336001600160a01b037f0000000000000000000000000000000000000000000000000000000000000000161461131a57600080fd5b60025460405163d45e3f3760e01b81523060048201526001600160a01b039091169063d45e3f3790602401600060405180830381600087803b15801561135f57600080fd5b505af1158015611373573d6000803e3d6000fd5b5050505061140f565b336001600160a01b037f000000000000000000000000000000000000000000000000000000000000000016146113b157600080fd5b60025460405163d45e3f3760e01b81523060048201526001600160a01b039091169063d45e3f3790602401600060405180830381600087803b1580156113f657600080fd5b505af115801561140a573d6000803e3d6000fd5b505050505b7f00000000000000000000000000000000000000000000000000000000000000006001600160a01b03167f00000000000000000000000000000000000000000000000000000000000000006001600160a01b0316306001600160a01b03167fc7a53bb77240386ec61de42e9fc5532fe1f2841ffbb12ac1bac898849e72bbe260405160405180910390a4565b6040516001600160a01b03821660248201526114e39060440160408051601f198184030181529190526020810180516001600160e01b031663161765e160e11b1790526114e6565b50565b80516a636f6e736f6c652e6c6f67602083016000808483855afa5050505050565b80356001600160a01b038116811461151e57600080fd5b919050565b6000806040838503121561153657600080fd5b61153f83611507565b915061154d60208401611507565b90509250929050565b6020808252601390820152720a8d2dacad8dec6d640d0c2e640ccd2dcd2e6d606b1b604082015260600190565b60006020828403121561159557600080fd5b815180151581146115a557600080fd5b939250505056fea2646970667358221220ba556c1414114ca74ad4a2e16c9d308145b1cdb59e49b45bf9403cb311e61db864736f6c63430008180033a264697066735822122093d684a94e4d451bea230969d4c79b6df33355a36139c32923116197996fd63064736f6c63430008180033","linkReferences":{}},"methodIdentifiers":{"change_status_of_transaction(address,address)":"6efc1c76","get_escrow_data(address)":"10c333cf","get_status_of_transaction(address)":"aca2023b","governance()":"5aa6e675","off_ramp(address,address,address,address,address,address,uint256)":"56c5a80e","on_ramp(address,address,address,address,address,address,uint256)":"fabcf06e","postOffer(uint256,bool,string,uint256)":"1b0c6288","registerMerchant(uint256)":"62462d24","registry()":"7b103999","set_governance(address)":"070313fa","token()":"fc0c546a"},"id":37}