{"abi":[{"type":"constructor","inputs":[{"name":"_name","type":"string","internalType":"string"},{"name":"_symbol","type":"string","internalType":"string"}],"stateMutability":"nonpayable"},{"type":"function","name":"acceptOwnership","inputs":[],"outputs":[],"stateMutability":"nonpayable"},{"type":"function","name":"allowance","inputs":[{"name":"owner","type":"address","internalType":"address"},{"name":"spender","type":"address","internalType":"address"}],"outputs":[{"name":"","type":"uint256","internalType":"uint256"}],"stateMutability":"view"},{"type":"function","name":"approve","inputs":[{"name":"spender","type":"address","internalType":"address"},{"name":"value","type":"uint256","internalType":"uint256"}],"outputs":[{"name":"","type":"bool","internalType":"bool"}],"stateMutability":"nonpayable"},{"type":"function","name":"balanceOf","inputs":[{"name":"account","type":"address","internalType":"address"}],"outputs":[{"name":"","type":"uint256","internalType":"uint256"}],"stateMutability":"view"},{"type":"function","name":"decimals","inputs":[],"outputs":[{"name":"","type":"uint8","internalType":"uint8"}],"stateMutability":"view"},{"type":"function","name":"mint","inputs":[{"name":"to","type":"address","internalType":"address"},{"name":"amount","type":"uint256","internalType":"uint256"}],"outputs":[],"stateMutability":"nonpayable"},{"type":"function","name":"name","inputs":[],"outputs":[{"name":"","type":"string","internalType":"string"}],"stateMutability":"view"},{"type":"function","name":"owner","inputs":[],"outputs":[{"name":"","type":"address","internalType":"address"}],"stateMutability":"view"},{"type":"function","name":"pendingOwner","inputs":[],"outputs":[{"name":"","type":"address","internalType":"address"}],"stateMutability":"view"},{"type":"function","name":"renounceOwnership","inputs":[],"outputs":[],"stateMutability":"nonpayable"},{"type":"function","name":"symbol","inputs":[],"outputs":[{"name":"","type":"string","internalType":"string"}],"stateMutability":"view"},{"type":"function","name":"totalSupply","inputs":[],"outputs":[{"name":"","type":"uint256","internalType":"uint256"}],"stateMutability":"view"},{"type":"function","name":"transfer","inputs":[{"name":"to","type":"address","internalType":"address"},{"name":"value","type":"uint256","internalType":"uint256"}],"outputs":[{"name":"","type":"bool","internalType":"bool"}],"stateMutability":"nonpayable"},{"type":"function","name":"transferFrom","inputs":[{"name":"from","type":"address","internalType":"address"},{"name":"to","type":"address","internalType":"address"},{"name":"value","type":"uint256","internalType":"uint256"}],"outputs":[{"name":"","type":"bool","internalType":"bool"}],"stateMutability":"nonpayable"},{"type":"function","name":"transferOwnership","inputs":[{"name":"newOwner","type":"address","internalType":"address"}],"outputs":[],"stateMutability":"nonpayable"},{"type":"event","name":"Approval","inputs":[{"name":"owner","type":"address","indexed":true,"internalType":"address"},{"name":"spender","type":"address","indexed":true,"internalType":"address"},{"name":"value","type":"uint256","indexed":false,"internalType":"uint256"}],"anonymous":false},{"type":"event","name":"OwnershipTransferStarted","inputs":[{"name":"previousOwner","type":"address","indexed":true,"internalType":"address"},{"name":"newOwner","type":"address","indexed":true,"internalType":"address"}],"anonymous":false},{"type":"event","name":"OwnershipTransferred","inputs":[{"name":"previousOwner","type":"address","indexed":true,"internalType":"address"},{"name":"newOwner","type":"address","indexed":true,"internalType":"address"}],"anonymous":false},{"type":"event","name":"Transfer","inputs":[{"name":"from","type":"address","indexed":true,"internalType":"address"},{"name":"to","type":"address","indexed":true,"internalType":"address"},{"name":"value","type":"uint256","indexed":false,"internalType":"uint256"}],"anonymous":false},{"type":"error","name":"ERC20InsufficientAllowance","inputs":[{"name":"spender","type":"address","internalType":"address"},{"name":"allowance","type":"uint256","internalType":"uint256"},{"name":"needed","type":"uint256","internalType":"uint256"}]},{"type":"error","name":"ERC20InsufficientBalance","inputs":[{"name":"sender","type":"address","internalType":"address"},{"name":"balance","type":"uint256","internalType":"uint256"},{"name":"needed","type":"uint256","internalType":"uint256"}]},{"type":"error","name":"ERC20InvalidApprover","inputs":[{"name":"approver","type":"address","internalType":"address"}]},{"type":"error","name":"ERC20InvalidReceiver","inputs":[{"name":"receiver","type":"address","internalType":"address"}]},{"type":"error","name":"ERC20InvalidSender","inputs":[{"name":"sender","type":"address","internalType":"address"}]},{"type":"error","name":"ERC20InvalidSpender","inputs":[{"name":"spender","type":"address","internalType":"address"}]},{"type":"error","name":"OwnableInvalidOwner","inputs":[{"name":"owner","type":"address","internalType":"address"}]},{"type":"error","name":"OwnableUnauthorizedAccount","inputs":[{"name":"account","type":"address","internalType":"address"}]}],"bytecode":{"object":"0x60806040523480156200001157600080fd5b5060405162000eee38038062000eee833981016040819052620000349162000359565b338282600362000045838262000454565b50600462000054828262000454565b5050506001600160a01b0381166200008757604051631e4fbdf760e01b8152600060048201526024015b60405180910390fd5b6200009281620000b0565b50620000a833683635c9adc5dea00000620000ce565b505062000548565b600680546001600160a01b0319169055620000cb816200010c565b50565b6001600160a01b038216620000fa5760405163ec442f0560e01b8152600060048201526024016200007e565b62000108600083836200015e565b5050565b600580546001600160a01b038381166001600160a01b0319831681179093556040519116919082907f8be0079c531659141344cd1fd0a4f28419497f9722a3daafe3b4186f6b6457e090600090a35050565b6001600160a01b0383166200018d57806002600082825462000181919062000520565b90915550620002019050565b6001600160a01b03831660009081526020819052604090205481811015620001e25760405163391434e360e21b81526001600160a01b038516600482015260248101829052604481018390526064016200007e565b6001600160a01b03841660009081526020819052604090209082900390555b6001600160a01b0382166200021f576002805482900390556200023e565b6001600160a01b03821660009081526020819052604090208054820190555b816001600160a01b0316836001600160a01b03167fddf252ad1be2c89b69c2b068fc378daa952ba7f163c4a11628f55a4df523b3ef836040516200028491815260200190565b60405180910390a3505050565b634e487b7160e01b600052604160045260246000fd5b600082601f830112620002b957600080fd5b81516001600160401b0380821115620002d657620002d662000291565b604051601f8301601f19908116603f0116810190828211818310171562000301576200030162000291565b81604052838152602092508660208588010111156200031f57600080fd5b600091505b8382101562000343578582018301518183018401529082019062000324565b6000602085830101528094505050505092915050565b600080604083850312156200036d57600080fd5b82516001600160401b03808211156200038557600080fd5b6200039386838701620002a7565b93506020850151915080821115620003aa57600080fd5b50620003b985828601620002a7565b9150509250929050565b600181811c90821680620003d857607f821691505b602082108103620003f957634e487b7160e01b600052602260045260246000fd5b50919050565b601f8211156200044f576000816000526020600020601f850160051c810160208610156200042a5750805b601f850160051c820191505b818110156200044b5782815560010162000436565b5050505b505050565b81516001600160401b0381111562000470576200047062000291565b6200048881620004818454620003c3565b84620003ff565b602080601f831160018114620004c05760008415620004a75750858301515b600019600386901b1c1916600185901b1785556200044b565b600085815260208120601f198616915b82811015620004f157888601518255948401946001909101908401620004d0565b5085821015620005105787850151600019600388901b60f8161c191681555b5050505050600190811b01905550565b808201808211156200054257634e487b7160e01b600052601160045260246000fd5b92915050565b61099680620005586000396000f3fe608060405234801561001057600080fd5b50600436106100f55760003560e01c8063715018a611610097578063a9059cbb11610066578063a9059cbb146101ea578063dd62ed3e146101fd578063e30c397814610236578063f2fde38b1461024757600080fd5b8063715018a6146101ad57806379ba5097146101b55780638da5cb5b146101bd57806395d89b41146101e257600080fd5b806323b872dd116100d357806323b872dd1461014d578063313ce5671461016057806340c10f191461016f57806370a082311461018457600080fd5b806306fdde03146100fa578063095ea7b31461011857806318160ddd1461013b575b600080fd5b61010261025a565b60405161010f91906107df565b60405180910390f35b61012b61012636600461084a565b6102ec565b604051901515815260200161010f565b6002545b60405190815260200161010f565b61012b61015b366004610874565b610306565b6040516012815260200161010f565b61018261017d36600461084a565b61032a565b005b61013f6101923660046108b0565b6001600160a01b031660009081526020819052604090205490565b610182610338565b61018261034c565b6005546001600160a01b03165b6040516001600160a01b03909116815260200161010f565b610102610395565b61012b6101f836600461084a565b6103a4565b61013f61020b3660046108d2565b6001600160a01b03918216600090815260016020908152604080832093909416825291909152205490565b6006546001600160a01b03166101ca565b6101826102553660046108b0565b6103b2565b60606003805461026990610905565b80601f016020809104026020016040519081016040528092919081815260200182805461029590610905565b80156102e25780601f106102b7576101008083540402835291602001916102e2565b820191906000526020600020905b8154815290600101906020018083116102c557829003601f168201915b5050505050905090565b6000336102fa818585610423565b60019150505b92915050565b600033610314858285610435565b61031f8585856104b3565b506001949350505050565b6103348282610512565b5050565b610340610548565b61034a6000610575565b565b60065433906001600160a01b031681146103895760405163118cdaa760e01b81526001600160a01b03821660048201526024015b60405180910390fd5b61039281610575565b50565b60606004805461026990610905565b6000336102fa8185856104b3565b6103ba610548565b600680546001600160a01b0383166001600160a01b031990911681179091556103eb6005546001600160a01b031690565b6001600160a01b03167f38d16b8cac22d99fc7c124b9cd0de2d3fa1faef420bfe791d8c362d765e2270060405160405180910390a350565b610430838383600161058e565b505050565b6001600160a01b0383811660009081526001602090815260408083209386168352929052205460001981146104ad578181101561049e57604051637dc7a0d960e11b81526001600160a01b03841660048201526024810182905260448101839052606401610380565b6104ad8484848403600061058e565b50505050565b6001600160a01b0383166104dd57604051634b637e8f60e11b815260006004820152602401610380565b6001600160a01b0382166105075760405163ec442f0560e01b815260006004820152602401610380565b610430838383610663565b6001600160a01b03821661053c5760405163ec442f0560e01b815260006004820152602401610380565b61033460008383610663565b6005546001600160a01b0316331461034a5760405163118cdaa760e01b8152336004820152602401610380565b600680546001600160a01b03191690556103928161078d565b6001600160a01b0384166105b85760405163e602df0560e01b815260006004820152602401610380565b6001600160a01b0383166105e257604051634a1406b160e11b815260006004820152602401610380565b6001600160a01b03808516600090815260016020908152604080832093871683529290522082905580156104ad57826001600160a01b0316846001600160a01b03167f8c5be1e5ebec7d5bd14f71427d1e84f3dd0314c0f7b2291e5b200ac8c7c3b9258460405161065591815260200190565b60405180910390a350505050565b6001600160a01b03831661068e578060026000828254610683919061093f565b909155506107009050565b6001600160a01b038316600090815260208190526040902054818110156106e15760405163391434e360e21b81526001600160a01b03851660048201526024810182905260448101839052606401610380565b6001600160a01b03841660009081526020819052604090209082900390555b6001600160a01b03821661071c5760028054829003905561073b565b6001600160a01b03821660009081526020819052604090208054820190555b816001600160a01b0316836001600160a01b03167fddf252ad1be2c89b69c2b068fc378daa952ba7f163c4a11628f55a4df523b3ef8360405161078091815260200190565b60405180910390a3505050565b600580546001600160a01b038381166001600160a01b0319831681179093556040519116919082907f8be0079c531659141344cd1fd0a4f28419497f9722a3daafe3b4186f6b6457e090600090a35050565b60006020808352835180602085015260005b8181101561080d578581018301518582016040015282016107f1565b506000604082860101526040601f19601f8301168501019250505092915050565b80356001600160a01b038116811461084557600080fd5b919050565b6000806040838503121561085d57600080fd5b6108668361082e565b946020939093013593505050565b60008060006060848603121561088957600080fd5b6108928461082e565b92506108a06020850161082e565b9150604084013590509250925092565b6000602082840312156108c257600080fd5b6108cb8261082e565b9392505050565b600080604083850312156108e557600080fd5b6108ee8361082e565b91506108fc6020840161082e565b90509250929050565b600181811c9082168061091957607f821691505b60208210810361093957634e487b7160e01b600052602260045260246000fd5b50919050565b8082018082111561030057634e487b7160e01b600052601160045260246000fdfea2646970667358221220a8b6ade0521cf22e7123a1b7022af7358b8a2069efcf4a98f9668ab8be95f25664736f6c63430008180033","linkReferences":{}},"methodIdentifiers":{"acceptOwnership()":"79ba5097","allowance(address,address)":"dd62ed3e","approve(address,uint256)":"095ea7b3","balanceOf(address)":"70a08231","decimals()":"313ce567","mint(address,uint256)":"40c10f19","name()":"06fdde03","owner()":"8da5cb5b","pendingOwner()":"e30c3978","renounceOwnership()":"715018a6","symbol()":"95d89b41","totalSupply()":"18160ddd","transfer(address,uint256)":"a9059cbb","transferFrom(address,address,uint256)":"23b872dd","transferOwnership(address)":"f2fde38b"},"id":38}